:020000040800F2
:10000000C806002089010008190D0008050600082F
:10001000150D00085F020008251E00080000000002
:10002000000000000000000000000000B9170008F8
:10003000630200080000000075170008A5180008FA
:10004000A3010008A3010008A3010008A301000800
:10005000A3010008A3010008A3010008A3010008F0
:10006000A3010008A3010008A3010008A3010008E0
:10007000A3010008A3010008A3010008A3010008D0
:10008000A3010008A3010008A3010008A3010008C0
:10009000A3010008A3010008A3010008AD020008A5
:1000A000A3010008A3010008A3010008A3010008A0
:1000B000A3010008A301000809190008A301000812
:1000C000A3010008A3010008A3010008A301000880
:1000D000A3010008A3010008A3010008A301000870
:1000E000A3010008A3010008A301000800F002F822
:1000F00000F03AF80AA090E8000C82448344AAF188
:100100000107DA4501D100F02FF8AFF2090EBAE885
:100110000F0013F0010F18BFFB1A43F0010318473B
:100120006847000088470000103A24BF78C878C1AB
:10013000FAD8520724BF30C830C144BF04680C60ED
:10014000704700000023002400250026103A28BF35
:1001500078C1FBD8520728BF30C148BF0B60704739
:100160001FB51FBD10B510BD00F044F81146FFF7D4
:10017000F7FF02F01BFD00F062F803B4FFF7F2FF97
:1001800003BC00F065F800000948804709480047B3
:10019000FEE7FEE7FEE7FEE7FEE7FEE7FEE7FEE737
:1001A000FEE7FEE704480549054A064B7047000094
:1001B000A9180008ED000008C8000020C8060020AB
:1001C000C8020020C802002070477047704710B571
:1001D00000F008F8006810BD10B5044600F002F801
:1001E000046010BD00487047680000200048704758
:1001F000680000207546FFF7F9FFAE460500694626
:10020000534620F00700854618B020B5FFF7CAFF17
:10021000BDE820404FF000064FF000074FF0000807
:100220004FF0000B21F00701AC46ACE8C009ACE888
:10023000C009ACE8C009ACE8C0098D46704710B5EC
:100240000446AFF300802046BDE81040FFF795BF9D
:1002500001491820ABBEFEE726000200704700BF30
:10026000FEE7704700B5034603E04FF47A7000F0F4
:1002700005F8181EA3F10103F7D100BD00EBC00182
:10028000C9004FF0E0225161002191610521116107
:1002900000BF4FF0E021096901F480310029F8D056
:1002A00004214FF0E02211617047000010B540209A
:1002B00000F02EF801280ED14021114800F071F90C
:1002C00030B980210E4800F06CF908B900F0D0F97F
:1002D000402000F017F8802000F01AF801280ED115
:1002E0008021074800F05DF930B94021044800F052
:1002F00058F908B900F056FA802000F003F810BD54
:1003000000080140014908607047000014040140E2
:10031000014600200022074B1B6803EA0102054B3F
:1003200014331B680B4013B10AB1012000E0002018
:100330007047000000040140002123498279002A0F
:100340003AD00A46126803689A430B461A600A1D9F
:10035000126803689A430B1D1A60027911440A68F7
:1003600003681A430A60184A0832126803689A43FD
:10037000154B08331A601A1D126803689A43124B12
:100380000C331A604279102A0ED11A1F12680368C2
:100390001A430D4B08331A601A1D126803681A437A
:1003A000094B0C331A600DE00749427911440A6881
:1003B00003681A430A6005E0027911440A68036879
:1003C0009A430A6070470000000401401FB50121F4
:1003D000042001F0E1F90121084601F0DDF948208F
:1003E0008DF80F00C020ADF80C0003208DF80E0032
:1003F00003A9154800F04AF80621002000F026F86D
:100400000721002000F022F8C020019001208DF883
:100410000A0000208DF808000C208DF8090001A8C2
:10042000FFF78AFF4FF4A06000F0B0FC17208DF8B2
:10043000000001208DF803008DF801008DF8020006
:10044000684600F06BFC1FBD000C014030B5002277
:100450008B071C0F0F2303FA04F20B4B8C1053F87D
:1004600024309343084C8D1044F8253023468C10DB
:1004700053F824308C07240F00FA04F42343024C71
:100480008D1044F8253030BD080001402DE9F041C1
:10049000024600250026002000230024002791F8B2
:1004A00003C00CF00F0591F803C00CF0100CBCF168
:1004B000000F03D091F802C04CEA050591F800C086
:1004C000BCF1000F31D0146800202BE04FF0010C7C
:1004D0000CFA00F3B1F800C00CEA03069E4220D1EA
:1004E00083004FF00F0C0CFA03F7BC4305FA03FC32
:1004F0004CEA040491F803C0BCF1280F06D14FF078
:10050000010C0CFA00FCC2F814C00AE091F803C018
:10051000BCF1480F05D14FF0010C0CFA00FCC2F8F9
:1005200010C0401C0828D1D31460B1F800C0BCF141
:10053000FF0F34DD546800202EE000F1080C4FF06E
:10054000010808FA0CF3B1F800C00CEA03069E4259
:1005500021D183004FF00F0C0CFA03F7BC4305FACE
:1005600003FC4CEA040491F803C0BCF1280F05D148
:1005700000F1080C08FA0CF8C2F8148091F803C0D6
:10058000BCF1480F07D100F1080C4FF0010808FA40
:100590000CF8C2F81080401C0828CED35460BDE887
:1005A000F0810246002093680B400BB1012000E06F
:1005B000002070470AB1016100E04161704700000E
:1005C00010B54FF0804001F02DFA0A4908704FF045
:1005D000804001F02AFA084908704FF0804001F08D
:1005E00027FA064908704FF0804001F024FA0449C8
:1005F000087010BD340000203500002036000020B7
:100600003700002000BFFEE74CF6CC4001490860EF
:10061000704700000030004010B545F2555000F022
:1006200021F8022000F012F840F6C31000F014F890
:1006300000F004F8FFF7E8FF10BD00004AF6AA201A
:1006400001490860704700000030004001494860DF
:10065000704700000030004001498860704700008A
:100660000030004001490860704700000030004041
:1006700010B500F095FB4248007803280DD14148A1
:10068000007850B940480078401C3F49087008463F
:100690000078072801D1062008703948007804281E
:1006A0000DD13848007850B937480078401C364999
:1006B000087008460078072801D1062008703048E5
:1006C000007803282BD12F480078012827D12E4805
:1006D0000078062822D2DFE800F02103090F151B5D
:1006E0002A480068401C2949086017E0284800781B
:1006F000401C2749087011E026480078401C254915
:1007000008700BE024480078401C2349087005E07D
:1007100022480078401C2149087000BF00BF1848DB
:10072000007850B918480078401C174908700846EE
:100730000078062801D105200870114800780128AA
:100740000AD111480078401C0F490870084600780B
:10075000052801D1042008700948007804280ED12A
:100760000848007801280AD10D480078401C0C493F
:10077000087008460078052801D10420087010BDD3
:100780000500002028000020060000202C0000208A
:10079000090000200A0000200B0000200C000020AF
:1007A0003C00002010B500F0FBFA4048007850B93A
:1007B0003F480078401E3E490870084600780128EE
:1007C00001D1022008703948007804280CD139483A
:1007D000007848B936480078401E35490870084608
:1007E000007808B90120087030480078012809D144
:1007F0002F480078401E2E4908700846007808B936
:10080000012008702948007804280DD12948007873
:10081000012809D128480078401E27490870084659
:10082000007808B9012008702048007803280CD10E
:100830002048007848B91E480078401E1C490870BE
:100840000846007808B90120087018480078032885
:100850002BD118480078012827D1154800780628A0
:1008600022D2DFE800F02103090F151B13480068AE
:10087000401E1249086017E011480078401E1049D8
:10088000087011E00F480078401E0E4908700BE018
:100890000D480078401E0C49087005E00B480078B0
:1008A000401E0A49087000BF00BF10BD05000020AF
:1008B00006000020280000203C0000202C00002022
:1008C000090000200A0000200B0000200C0000207E
:1008D00010B5F348007800B110BD0120F049087050
:1008E00001F092FFEF490870EF480078097848401E
:1008F000EC4909780840ED490870EB480078E9496F
:1009000009784840E74909788843E9490870E5488B
:100910000078E5490870E5480078012806D00228EB
:1009200007D0032808D0042802D14FE1FFF7A0FE2A
:10093000B2E1FFF737FFAFE100F032FADD480078AF
:1009400000285DD1DC480078022806D003280AD0B0
:1009500004280FD0052851D145E00120D549087061
:10096000D54908704AE00220D24908700120D249D6
:10097000087043E00320CF4908704FF0804001F039
:1009800051F8CE4908704FF0804001F04EF8CC4944
:1009900008704FF0804001F04BF8CA4908704FF0E2
:1009A000804001F048F8C84908704FF0804001F0DD
:1009B00057F8C6490860C1480078C5490870C04862
:1009C0000078C4490870BF480078C3490870BE4821
:1009D0000078C2490870BD480068C149086001201C
:1009E000B54908700AE000F0DBF90420B14908704D
:1009F00000F0D6F90120B049087000BF00BF4BE1FC
:100A0000AC48007801282CD1AB480078B549087073
:100A10000120B5490870800701F004F8A749087063
:100A20004FF0804001F001F8A54908704FF0804078
:100A300000F0FEFFA34908704FF0804000F0FBFF7C
:100A4000A14908704FF0804001F00AF89F49086002
:100A500008460068401CA549B1FBF0F0A4490860B5
:100A60001AE19448007804280CD1A248007848B9CB
:100A70000120A0490870904800789F49087000F054
:100A80008FF909E18B480078042850D19948007803
:100A900001284CD199480078012806D0022814D0AA
:100AA000032822D0042840D12FE09548007818B1BF
:100AB00000209349087038E09148007820B98E48AA
:100AC00000788F49087030E02FE08E48007818B128
:100AD00000208C49087028E08A48007820B98648B0
:100AE00000788849087020E01FE08748007818B136
:100AF00000208549087018E08348007820B97E48B6
:100B000000788149087010E00FE08048007818B143
:100B100000207E49087008E07C48007820B97648BB
:100B200000787A49087000E000BF00BFB4E0614877
:100B3000007803280AD16F48007838B900F030F9FE
:100B400001206C49087072490870A5E05948007886
:100B500003283AD167480078012836D15C480078EC
:100B6000564908705B480078554908705A48007823
:100B7000544908705948007853490870584800682B
:100B8000524908604D4801784FF0804001F0B3F8B9
:100B90004B4801784FF0804001F0AFF849480178A8
:100BA0004FF0804001F0ABF8474801784FF08040AB
:100BB00001F0A7F84548008881B20122900701F0B2
:100BC00097F800204B49087066E065E000F0E8F80F
:100BD00038480078012807D143480078012803D11C
:100BE00000204149087057E03248007801280BD1B5
:100BF0003D48007840B900202E490870FFF7E0FC1E
:100C000002202D49087047E02A48007803280BD1BC
:100C10003848007840B9002026490870FFF7D0FC1A
:100C200002202549087037E022480078032809D1BE
:100C300030480078012805D100202E490870344939
:100C4000087029E01B480078022806D100201949C5
:100C500008700220184908701EE016480078042821
:100C60000BD12448007840B9002012490870FFF7E2
:100C7000A7FC0220104908700EE00E4800780428F6
:100C800009D11C480078012805D1002019490870B5
:100C90001949087000E000BF00BF00BF1CE600005B
:100CA00000000020010000200200002004000020BD
:100CB0000300002005000020060000203400002072
:100CC00035000020360000203700002030000020D2
:100CD000090000200A0000200B0000200C0000206A
:100CE0002C000020080000200700002080FC0A00E3
:100CF0001000002028000020590000203C000020A7
:100D00005500002056000020570000205800002009
:100D10001800002000BFFEE77047000070B50021FA
:100D200000230F22C47804B3154C246804F4E06453
:100D3000C4F5E064210AC1F10403CA40447804FA0E
:100D400003F184781440214309010E4C0678A15523
:100D5000047804F01F050124AC4005786D11AD0046
:100D600005F1E025C5F8004109E0047804F01F050D
:100D70000124AC40044D0678761145F8264070BD3C
:100D80000CED00E000E400E080E100E002490143F6
:100D9000024A1160704700000000FA050CED00E007
:100DA00070B500240EE00021204600F0F4F8002584
:100DB00004E0002000F080F9681CC5B2802DF8DB4B
:100DC000601CC4B2082CEEDB70BD000008B5012128
:100DD000082000F0E1FC14208DF8030003208DF8BA
:100DE00002004FF48070ADF8000069460A48FFF732
:100DF0004DFB4FF40070ADF8000069460648FFF760
:100E000045FB012211020448FFF7D4FB01225102E5
:100E10000148FFF7CFFB08BD000C014070B5054647
:100E2000002419E080202041284008B1012000E082
:100E3000002002464FF400710E48FFF7BBFB012271
:100E400011020C48FFF7B6FB00224FF480710948ED
:100E5000FFF7B0FB601CC4B2082CE3DB01221102D7
:100E60000448FFF7A7FB00224FF480710148FFF709
:100E7000A1FB70BD000C014010B5012251020A48CF
:100E8000FFF798FB012211020748FFF793FB0022AE
:100E90004FF400710448FFF78DFB00224FF480717E
:100EA0000148FFF787FB10BD000C014010B5002280
:100EB0004FF400710648FFF77DFB01221102044840
:100EC000FFF778FB012251020148FFF773FB10BDC9
:100ED000000C014070B5002406E0002500E06D1C08
:100EE000B5F57A7FFBD3641CB4F57A7FF5D3FFF7B1
:100EF0006DFFAE2000F0D0F8D52000F0CDF88020B6
:100F000000F0CAF8A82000F0C7F83F2000F0C4F8AD
:100F1000D32000F0C1F8002000F0BEF8402000F01F
:100F2000BBF8A12000F0B8F8C82000F0B5F8DA202E
:100F300000F0B2F8122000F0AFF8812000F0ACF819
:100F4000CF2000F0A9F8D92000F0A6F8F12000F099
:100F5000A3F8DB2000F0A0F8302000F09DF8A420DA
:100F600000F09AF8A62000F097F88D2000F094F891
:100F7000142000F091F8AF2000F08EF8FFF710FF7A
:100F800070BD10B50246012000E050430B1EA1F1D8
:100F90000101FAD110BD70B505460C4645F0B00010
:100FA00000F07AF8102141EA141000F075F804F00E
:100FB0000F0000F071F870BD2DE9F04105460E46B6
:100FC0001746721ED206110E6A1E5206100EFFF749
:100FD000E2FF002409E0A7F12001134A02EB01110E
:100FE000085D00F069F8601CC4B2082CF3DB721EC7
:100FF000D206110E6A1E012303EB4202D0B2FFF7A4
:10100000CAFF00240BE0A7F12001074A02EB0112FE
:1010100004F10801505C00F04FF8601CC4B2082CC9
:10102000F1DBBDE8F0810000D44000082DE9F04775
:1010300080460E4617461D46002415E0281B411E1B
:101040000A20FFF79EFFB7FBF0F00A21B0FBF1F298
:1010500001FB120000F130093019C1B24A46404686
:10106000FFF7AAFF601CC4B2AC42E7DBBDE8F08723
:101070002DE9F04107460E461546002407E02A5D9B
:101080003019C1B23846FFF797FF601CC4B2285D23
:101090000028F4D1BDE8F08110B50446FFF7ECFE5E
:1010A0007820FFF7BBFE0020FFF7B8FE2046FFF7D1
:1010B000B5FEFFF7FBFE10BD10B50446FFF7DCFEE2
:1010C0007820FFF7ABFE4020FFF7A8FE2046FFF791
:1010D000A5FEFFF7EBFE10BD10B5A9480078052866
:1010E0007ED2DFE800F00388EEEDEC00A5A201213E
:1010F0000846FFF7BDFFA7480078052814DAA6A226
:1011000002210846FFF7B4FFA5A202210320FFF742
:10111000AFFFA6A202210420FFF7AAFFA5A201218A
:101120009C480078FFF7A4FF9A480078052813D15F
:10113000A0A201210420FFF79BFF99A202210846EB
:10114000FFF796FF99A202210320FFF791FF9AA2D1
:1011500002210420FFF78CFF9A48007878B19A4862
:101160000068B0F5FA7F05D998A20E210120FFF79B
:101170007FFF04E096A20E210120FFF779FF95483A
:10118000007878B190480068B0F5FA7F05D992A24E
:101190000E210220FFF76CFF04E08DA20E21022039
:1011A000FFF766FF8D48007878B187480068B0F592
:1011B000FA7F05D98AA20E210320FFF759FF04E028
:1011C00083A20E210320FFF753FF8648007888B1E1
:1011D0007D480068B0F5FA7F07D983A20E2100E0B0
:1011E000CCE00420FFF744FF04E079A20E210420A4
:1011F000FFF73EFFC2E07D480078D0B97CA2022113
:101200000120FFF735FF7DA202210846FFF730FFDE
:101210007DA202210320FFF72BFF7EA202210420E2
:10122000FFF726FF63A201215A480078FFF720FF4D
:1012300076E07BA201210846FFF71AFF01237B48D5
:10124000027809211846FFF7F1FE79A20121022058
:10125000FFF70EFF78A201210320FFF709FF78A214
:1012600008210320FFF704FF76A201210420FFF7E5
:10127000FFFE06237648194602680220FFF7D6FED5
:1012800074A20C210220FFF7F3FE684800780128C1
:1012900006D0022816D0032823D004283FD12FE0FF
:1012A00002234848027806210320FFF7BFFE0323EC
:1012B0004448027809210420FFF7B8FE2FE05AE0E5
:1012C00056E02EE002234348027806210320FFF770
:1012D000ADFE03233F48027809210420FFF7A6FE54
:1012E0001DE002233B48027806210320FFF79EFE03
:1012F00003233848027809210420FFF797FE0EE007
:1013000002233848027806210320FFF78FFE0323CB
:101310003448027809210420FFF788FE00BF00BF8F
:101320002CE04DA207210220FFF7A2FE4AA20A21CB
:101330000220FFF79DFE0223484802780521184647
:10134000FFF774FE02234648027808211846FFF78B
:101350006DFE0223434802780B211846FFF766FE14
:1013600002234148012102680320FFF75FFE05E0E8
:1013700001F01CFF02E000F079F800BF00BF10BDD3
:1013800005000020202020204D61696E4D656E759E
:10139000000000000600002050574D2053657400E7
:1013A000436C6F636B2054657374000053657474F1
:1013B000696E67003E0000004F746865725F4D6F94
:1013C00064650000340000203800002043483100EC
:1013D0002020200035000020434832003600002045
:1013E0004348330037000020434834000700002002
:1013F0004368616E6E656C2D310000004368616E5C
:101400006E656C2D320000004368616E6E656C2D58
:10141000330000004368616E6E656C2D340000007F
:101420004368616E6E656C2D0000000008000020AE
:10143000467265713D000000447574793D000000FE
:10144000250000004343525F56616C3D00000000E0
:1014500010000020487A00002D000000220000202B
:1014600021000020200000202400002010B5844826
:101470000078002857D183480078052819DA82A21D
:1014800002210120FFF7F4FD82A202210846FFF7A6
:10149000EFFD83A202210320FFF7EAFD83A20221D0
:1014A0000420FFF7E5FD83A2012176480078FFF7CD
:1014B000DFFD74480078052818D176A202210120AA
:1014C000FFF7D6FD76A202210846FFF7D1FD77A2ED
:1014D00002210320FFF7CCFD76A201210420FFF7B3
:1014E000C7FD75A202210420FFF7C2FD6548007800
:1014F000062818D16AA202210120FFF7B9FD6BA2CC
:1015000002210846FFF7B4FD6AA201210420FFF77B
:10151000AFFD69A202210320FFF7AAFD69A2022103
:101520000420FFF7A5FD56480078012870D168A275
:1015300006210220FFF79CFD66A20E210220FFF784
:1015400097FD65A206210320FFF792FD63A20E21FD
:101550000320FFF78DFD6248007820B161A20321CE
:101560000220FFF785FD5E48007820B95EA20321C6
:101570000220FFF77DFD5D48007820B159A20B21C4
:101580000220FFF775FD5948007820B956A20B21BB
:101590000220FFF76DFD5648007820B151A20321CB
:1015A0000846FFF765FD5248007820B94EA2032196
:1015B0000846FFF75DFD4F48007820B149A20B2196
:1015C0000320FFF755FD4B48007820B946A20B21B8
:1015D0000320FFF74DFD48480078012806D0022877
:1015E0000AD003280ED0042819D112E031A202211A
:1015F0000846FFF73DFD12E02EA20A210220FFF768
:1016000037FD0CE02BA202210320FFF731FD06E09D
:1016100035E028A20A210320FFF72AFD00BF00BF02
:1016200018480078072829D2DFE800F028040A10BB
:10163000161C220031A201210846FFF719FD1DE00A
:1016400033A201210846FFF713FD17E035A201215F
:101650000846FFF70DFD11E037A201210846FFF70C
:1016600007FD0BE039A201210846FFF701FD05E067
:101670003BA201210846FFF7FBFC00BF00BF10BDE5
:10168000280000200600002053696E5F6D6F6465BE
:1016900000000000436F735F6D6F64650000000021
:1016A00054616E5F6D6F646500000000496E5F6D90
:1016B0006F6465003E000000547269616E676C657E
:1016C00000000000536177746F6F746800000000C1
:1016D0004348310043483200434833004348340014
:1016E000550000204F4E00004F4646005600002097
:1016F00057000020580000203C000020202020201F
:1017000053696E5F5761766520202020000000003D
:1017100020202020436F735F5761766520202020B2
:10172000000000002020202054616E5F5761766524
:10173000202020200000000020202020496E455F4E
:101740005761766520202020000000002020202006
:101750005472695F576176652020202000000000E8
:10176000202020205361775F57617665202020205C
:10177000000000007047000029B1064AD269024308
:10178000044BDA6104E0034AD2698243014BDA6117
:10179000704700000010024029B1064A92690243D6
:1017A000044B9A6104E0034A92698243014B9A61B7
:1017B0007047000000100240704710B500F002F8BA
:1017C00010BD00000CB50020019000903348006867
:1017D00040F480303149086000BF3048006800F4B0
:1017E000003000900198401C0190009818B90198B1
:1017F000B0F5A06FF1D12948006800F4003010B1B5
:101800000120009001E0002000900098012843D1C1
:101810002348006840F0100021490860084600682D
:1018200020F0030008600846006840F002000860ED
:101830001A484068194948600846406848600846A8
:10184000406840F4806048600846406820F47C109E
:1018500048600846406840F4E81048600846006860
:1018600040F08070086000BF0C48006800F0007015
:101870000028F9D00948406820F003000749486073
:101880000846406840F00200486000BF03484068D6
:1018900000F00C000828F9D10CBD00000010024037
:1018A000002002407047000010B51348006840F067
:1018B00001001149086008464068104908400E4977
:1018C0004860084600680E4908400B490860084611
:1018D000006820F4802008600846406820F4FE007C
:1018E00048604FF41F008860FFF767FF4FF000600B
:1018F0000449086010BD0000001002400000FFF81D
:10190000FFFFF6FE08ED00E010B50121334800F0BE
:1019100096F8012860D132480078401C30490870A0
:1019200008460078062801D100200870FEF7D0FF95
:101930002C480068401C2B49086008460068B0F538
:10194000167F01D10020086027480068401C264906
:10195000086008460068B0F57A7F06D1002008606C
:1019600022480078401C2149087021480078401C1A
:101970001F49087008460078642801D100200870CB
:101980001C480068401C1B49086008460068B0F508
:101990007A7F03D100200860FFF702FA134800782D
:1019A0003C2807D100201149087013480078401CDA
:1019B00011490870104800783C2807D10F4800787A
:1019C000401C0E49087000200B49087001F014FB00
:1019D0000121024800F017F810BD00000008004087
:1019E000000000201C000020240000202000002017
:1019F0005D0000203800002021000020220000208F
:101A0000CA4302827047CA430282704721B10288EA
:101A100042F00102028004E002884FF6FE731A4091
:101A2000028070470146888E70470146088F7047D4
:101A30000146888F70470146B1F84000704730B5C5
:101A40000246002000230024158A05EA0103958937
:101A500005EA010413B10CB1012000E0002030BD03
:101A60000146088D70471AB183890B43838102E0D8
:101A700083898B438381704701894FF6F872114047
:101A80000181704770B5002400220023058C4FF6B9
:101A9000FE7635400584028C8388048B4FF68F7563
:101AA0002C40B51E2C400D882C43751E2A400D89F4
:101AB0002A434D882A43144DA8420BD0134DA84207
:101AC00008D0134DA84205D0124DA84202D0124DA5
:101AD000A84213D14FF6F7752A404D892A434FF695
:101AE000FB752A408D882A434FF6FF652B404FF641
:101AF000FF552B408D892B43CD892B438380048355
:101B0000CD888586028470BD002C014000340140E0
:101B100000400140004401400048014070B50024ED
:101B200000220023058C4FF6EF7635400584028CA9
:101B30008388048B48F6FF752C404FF6FF452C40F8
:101B40000D884FF6FF7606EA05252C434FF6DF7524
:101B50002A400D8906EA05152A434D8806EA05152F
:101B60002A43154DA84202D0144DA8421DD14FF66C
:101B70007F752A404D894FF6FF7606EA05152A4300
:101B80004FF6BF752A408D8806EA05152A434FF6A1
:101B9000FF352B404FF2FF752B408D8906EA8505F6
:101BA0002B43CD8906EA85052B4383800483CD88AA
:101BB0000587028470BD0000002C01400034014004
:101BC00070B5002400220023058C4FF6FF663540D7
:101BD0000584028C8388848B4FF68F752C404FF6DA
:101BE000FC752C400D882C434FF6FF552A400D897B
:101BF0004FF6FF7606EA05252A434D8806EA0525B5
:101C00002A43154DA84202D0144DA8421DD14FF2CF
:101C1000FF752A404D894FF6FF7606EA05252A43CF
:101C20004FF6FF352A408D8806EA05252A434EF6F1
:101C3000FF752B404DF6FF752B408D8906EA051583
:101C40002B43CD8906EA05152B4383808483CD88F9
:101C50008587028470BD0000002C014000340140E3
:101C600070B5002200230024058C4EF6FF76354027
:101C70000584038C8488828B48F6FF752A404FF6D2
:101C8000FF452A400D884FF6FF7606EA05252A43D0
:101C90004DF6FF752B400D8906EA05352B434D881F
:101CA00006EA05352B430B4DA84202D00A4DA84247
:101CB00008D14BF6FF752C408D894FF6FF7606EA6A
:101CC00085152C4384808283CD88A0F840500384FE
:101CD00070BD0000002C0140003401400021018053
:101CE00041808180C180018141818181C1817047B2
:101CF000018582827047818670470187704781879E
:101D00007047A0F840107047002202881D4B98428F
:101D10000ED01D4B98420BD0B0F1804F08D01B4B1A
:101D2000984205D01A4B984202D01A4B984204D1DF
:101D30004FF68F731A404B881A43174B984207D0BF
:101D4000164B984204D04FF6FF431A40CB881A43F3
:101D500002808B8883850B8803850A4B98420BD0C1
:101D6000094B984208D00E4B984205D00D4B984233
:101D700002D00D4B984201D10B7A03860123838256
:101D800070470000002C0140003401400004004076
:101D900000080040000C004000100040001400400B
:101DA0000040014000440140004801401FB50121AE
:101DB0000420FFF7E1FC1A48FFF75EFE0020ADF8B3
:101DC0000A00ADF806000920ADF8080041F61F40F2
:101DD000ADF8040000208DF80C0001A91048FFF7B1
:101DE00093FF01210E48FFF70BFE012211460C481C
:101DF000FFF739FE4FF4A060FEF7C8FF1E208DF8F4
:101E0000000001208DF803008DF801008DF802001C
:101E10006846FEF783FF01210148FFF7F7FD1FBD6C
:101E20000008004000BFFEE7490050EAC12018BF8B
:101E300004204A0D18BF40F0010040F2FF72B2EBDF
:101E4000515F08BF40F00200012808BF052070471D
:101E50002DE9F74F144694B00021C4E902111599F9
:101E6000079121F00045C9498D4206DC1599C4E966
:101E7000000117B00020BDE8F08FC549DFF814A3BA
:101E8000A9423CDD0799C44E0029C44FC44A1599A4
:101E9000534619DD01F0BCFF554506D0C14AC24B7F
:101EA00001F0B6FFC4E900010AE04FF0D352BE4B87
:101EB00001F0AEFF32463B4601F0AAFFC4E9000143
:101EC00017B00120BDE8F08F01F0C0FB554506D0EA
:101ED000B44AB54B01F0BAFBC4E900010AE04FF087
:101EE000D352B14B01F0B2FB32463B4601F0AEFBA0
:101EF000C4E9000117B04FF0FF30BDE8F08FAB49E7
:101F0000A942159978DB21F0004183468846A84A0A
:101F1000A84B01F073FE0022A74B01F097FB01F0E4
:101F2000E5FD099001F03FFE06460F469C4A5346E8
:101F300001F064FE43465A4601F05EFF80468A4641
:101F4000984A994B3046394601F058FE2A0D012532
:101F50000B924246534601F04FFF032DC4E90001A6
:101F600039D00B98C1F30A51401A05EB45111139CC
:101F7000814230DA9148C346784400EB0510CDF831
:101F80000CA00C90D0E900233046394601F036FE13
:101F900002460B46049106905846039901F038FF1B
:101FA00080468A4602460B465846039901F030FFA8
:101FB000049B069A01F02CFF83460C980391394646
:101FC000D0E90223304601F019FE5A46039B01F086
:101FD0001FFF6D1CBDE707980028A2BF099817B026
:101FE000BDE8F08F616881F000416160099817B029
:101FF0004042BDE8F08FFFE784461598C1F3130116
:10200000C0F30A50A0F2F5304FEA601800F01F0646
:10201000C6F12000139000200690079041F4801E26
:1020200005206D4676B1664A08EB00017A4452F805
:10203000213002EB8101B3404A68139922FA01F181
:10204000194305E05F4908EB0002794451F822107A
:10205000A1FB0E27A1FB0C131A449A4234BF0123A3
:10206000002303EB070A05EB8003D3E901B70F4414
:102070008F4234BF0121002193448B4411B1934519
:1020800002D903E0934501D2012100E00021C3E918
:1020900001B7514445F82010011EA0F10100C1DC38
:1020A0000298059F00F10050800F12900298DDE920
:1020B0000356800001F077FD834628460D9101F01C
:1020C00089FD6FF01D0201F0BFFFCDE90E01304622
:1020D00001F080FD6FF03D0201F0B6FF80468A46B8
:1020E000384601F077FD6FF05D0201F0ADFF074665
:1020F00042465346119101F0A9FADDE90E2301F0A1
:10210000A5FA5A460D9B01F0A1FA00250E465A4643
:1021100028460D9B01F07CFEDDE90E2301F078FEE0
:102120004246534601F074FE3A46119B01F064FEAC
:10213000DFF898A0244A534601F060FD0746884620
:10214000234A244B3146284601F058FD3A4643467F
:1021500001F07CFA074688464FF0A84253463146C4
:10216000284601F04BFD3A46434601F06FFA159AB6
:1021700012F0004F04D0129A81F0004152421292A4
:10218000C4E90001129817B0BDE8F08FFB21E93FC8
:102190007CD90240FB21F93F7370032E8A19A33BBF
:1021A000000040543163621A61B4D03DFB213941D3
:1021B00083C8C96D305FE43F0000E03FBC270000EA
:1021C000382700001A270000182D4454FB21F93D40
:1021D0003326A611460B113C2DE9FF4D21F0004896
:1021E00007460C46B8F1795F08DA01F07FFC002859
:1021F00001BF0020324904B0BDE8F08D3A462346C5
:102200001046194601F0FAFC054602462D480E46D6
:102210000B460621784400F05DF82A46334601F06B
:10222000EDFCDDE9022382468B463846214601F06B
:10223000E5FC04460F4652465B462846314601F00F
:10224000DDFC22463B4601F0E3FD07468A464FF09F
:10225000FF322846314601F0F7FE1B4A90450ADA64
:102260003A46534601F0D4FD04B00022BDE8F04DDB
:10227000134B01F0C1BD154A4245A8BFA8F5001592
:102280004FF00004B8BF124D22462B4601F0C0FDAE
:102290000646884622462B460020094901F0B8FD33
:1022A00004460D463A4653463046414601F0B0FDDD
:1022B00004B022462B46BDE8F04D01F09DBD000064
:1022C0000000F03FE82400003333D33F0000E93F33
:1022D0000000D23F2DE9F0414F1E00EBC70104463C
:1022E000D1E9000115461E4637F006020DD02A46F8
:1022F000334601F083FC7F1E04EBC703D3E90023C0
:1023000001F0A4F937F00602F1D1022F25D0042FF5
:1023100013D0062F18BFBDE8F0812A46334601F0DE
:102320006DFCD4E90A2301F091F92A46334601F005
:1023300065FCD4E9082301F089F92A46334601F007
:102340005DFCD4E9062301F081F92A46334601F009
:1023500055FCD4E9042301F079F92A46334601F00B
:102360004DFCD4E9022301F071F92A46334601F00D
:1023700045FCD4E90023BDE8F04101F067B9000055
:102380002DE9FF4D054621F0004084B00C46B0F128
:10239000795F0BDA2846FFF747FD042808BF00F0F5
:1023A000B5F9284608B02146BDE8F08D2A460B460F
:1023B000104601F023FC06460F462A46234601F04C
:1023C0001DFC804626488A4632463B460521784415
:1023D000FFF780FF83461098029160B3214A224B99
:1023E0004046514601F00AFCCDE900015A464046FC
:1023F0005146029B01F002FC82468846DDE9060157
:102400004FF0FF3201F020FE5246434601F000FD3E
:1024100032463B4601F0F2FBDDE9062301F0F8FC11
:10242000DDE9002301F0F4FC08B02A462346BDE8AC
:10243000F04D01F0E1BC0B465A463046394601F0FA
:10244000DDFB084A084B01F001F94246534601F012
:10245000D5FB08B02A462346BDE8F04D01F0F6B89A
:102460002E240000495555555555C5BF2DE9F04D51
:1024700004468CB0904821F00047164698460D4619
:102480000991874206DA2046294601F02FFB0028F1
:1024900000F0AE808948B8421CDC09980028BCBF17
:1024A00085F0004588F00048854A864B204629463D
:1024B00001F0A2FC04460D46324643468248834959
:1024C00001F0A6FC22462B4601F0C0F80026044687
:1024D0000D46B04622462B461046194601F08EFBAB
:1024E0008B46824602460B4601F088FB0246089066
:1024F00077480B46009106217844FFF7EBFECDE9C3
:102500000310744806217844009B089AFFF7E2FE06
:1025100052465B4601F072FBCDE9051052465B4620
:102520002046294601F06AFB07910090DDE903107F
:10253000DDE9053201F08AF8079B009A01F05EFBA5
:102540003246434601F082F852465B4601F056FBA4
:102550003246434601F07AF880460E465E4A5F4BAB
:102560000799009801F04AFB4246334601F06EF8A5
:1025700082468B4622462B4601F068F880464F483B
:102580000E46B84214985BDC01F00DFB074642464C
:102590003346059101F05AF8CDE901104246334621
:1025A0001046194601F02AFBDDE9013201F00AF973
:1025B00052465B4601F02CFC22462B4601F01CFCE7
:1025C000012201F041FD3A46059B01F015FC04464D
:1025D0000D460998022101EAA070C0F1010001F046
:1025E000E2FA0CB022462B46BDE8F04D01F006BBE6
:1025F0001498401C384320430BD01498012812D063
:102600000CB022462B46BDE8F04D0020344901F0C5
:10261000D9B80CB025F000432246BDE8F04D0020AB
:10262000304901F0CFB820462946FFF7FDFB0428CA
:1026300008BF00F06BF820460CB02946BDE8F08DCD
:10264000012802BF40460CB0BDE8F08D00270B46C4
:102650003A462046294601F0CFFB52465B4601F040
:10266000CBFB04460D464246334600201C4901F090
:10267000A9F883463A4688463346104601F0BEFA2A
:102680000022184B00F0E2FF06468A4622462B46FF
:102690003846414601F0B2FA3246534600F0D6FFC2
:1026A0005A46434601F0AAFA0CB03A464346BDE802
:1026B000F04D00F0CBBF00000000303E2894E53F15
:1026C000182D4454FB21E93F075C143326A6813CB6
:1026D0002C2300004E230000635555555555D53F1A
:1026E0000000F0BF0000F03F0022134610460149F1
:1026F00001F068B80000F03F012201F0A5BC002203
:1027000013461046114601F05DB80000024A002051
:10271000110701F099BC000001FDFFFF00B5244B3B
:1027200021F0004287B09A42DCBF0022134629DD27
:10273000204B9A4208D140B94FF00100FDF74CFD03
:10274000FFF7DDFF07B000BD03DBFFF7D5FF07B0E4
:1027500000BD02AAFFF77CFB10F0030104BF0DF1DE
:10276000080C9CE80F000DD0012001290ED0022991
:1027700014D00DF1080C00909CE80F00FFF700FE4C
:1027800007B000BDFFF728FD07B000BD0DF1080C34
:1027900000909CE80F00FFF7F3FD05E00DF1080C39
:1027A0009CE80F00FFF718FD07B081F0004100BD65
:1027B000FB21E93F0000F07F1CB501210420FEF75A
:1027C000EBFF48208DF807002820ADF80400032017
:1027D0008DF8060001A90A48FDF758FE01210820DE
:1027E000FEF7DAFF48208DF803000320ADF8000063
:1027F0008DF8020069460348FDF748FE1CBD000045
:1028000000080140000C014010B501210E48FDF701
:10281000C8FE08B9012010BD02210B48FDF7C1FE1A
:1028200008B90220F7E708210848FDF7BAFE08B901
:102830000320F0E720210548FDF7B3FE08B9042086
:10284000E9E70020E7E70000000C01400008014034
:102850002DE9F04DC84A002490B0914205DA21F0EC
:102860000043934201D805D120B110B0BDE8F04D2E
:10287000FFF742BFB1F5801F1BDA53EA000209D00F
:10288000002911DA0120FDF7A7FC10B0BDE8F04DDA
:10289000FFF735BF0220FDF79FFCFFF725FF10B0C3
:1028A00081F00041BDE8F08D6FF03504362201F073
:1028B000CBFB04EB2152C1F31308B049A2F2FF3362
:1028C000414401F4801282F07F6103EB225281F0D7
:1028D0004051009241EA08010022A94B01F098FA08
:1028E000044608F10200A74EC0F313000D467E44D3
:1028F000032867D2D6E90023204601F0BBF81ED199
:102900000098002802BFD6E9000110B0BDE8F08DA4
:1029100001F049F907460C469B4A9C4B01F06EF9C1
:1029200006460D469A4A9B4B3846214601F066F909
:1029300010B032462B46BDE8F04D00F087BE4FF098
:102940005532954B2046294601F058F90022934B09
:1029500001F052FA06460F4622462B46104619460B
:1029600001F04CF932463B4601F048F90646009822
:102970000F46F0B101F017F980468A46824A834B30
:1029800001F03CF932463B4601F036FA22462B462E
:1029900001F03EFA05460C467D4A7E4B40465146C4
:1029A00001F02CF910B02A462346BDE8F04D01F0A5
:1029B0002FBA0B4610B0324620462946BDE8F04DEE
:1029C00001F026BA00224FF08043204600F03EFE80
:1029D00002460B462046294600F0F4FE06460F4606
:1029E000009801F0E0F8CDE9040132463B4610467C
:1029F000394601F003F90C9069480C9A4044019063
:102A000009910B46104601F0F9F8824602466548E6
:102A10008B46C8F151080B4608F5D72803217844A6
:102A2000FFF758FC52465B4601F0E8F80A905E4812
:102A30000D9152465B4604217844FFF74BFC099BFD
:102A40000C9A01F0DBF8844601980D9B40EA0808D7
:102A500060460A9A00F0FAFD83460891B8F1000F2B
:102A60004EDD4FF0FF322046294601F0EDFA2246B6
:102A70002B4601F0C3F8804600988A4660B3DDE932
:102A80000401414A414B01F0B9F8099100905A46BE
:102A900040465146089B00F0D9FD32463B4601F0C6
:102AA000ADF8099B009A00F0D1FD4246534601F073
:102AB000A3F922462B4601F0ABF904460D46DDE9A9
:102AC0000401334A334B01F099F810B022462B46EB
:102AD000BDE8F04D01F09CB95A464046089B00F015
:102AE000B5FD32463B4601F089F84246534601F0B7
:102AF00083F910B022462B46BDE8F04D01F07CB9B9
:102B0000009840B3DDE904011F4A204B01F076F83C
:102B100080468A465A4620462946089B01F078F9A5
:102B200032463B4601F06AF84246534601F070F9DE
:102B300022462B4601F06CF904460D46DDE90401FE
:102B4000134A144B01F05AF810B022462B46BDE848
:102B5000F04D01F05DB90B465A462046294601F07A
:102B600057F932463B4601F049F810B022462B4651
:102B7000BDE8F04D01F040B90000F07F645F09004E
:102B80000000F03F3E1E0000763C7935EF39EA3D0B
:102B90000000E0FE422EE63F5555D53F0000E03FE5
:102BA00086EBF9FFA61C0000A41C000000F0CAF987
:102BB000FEF790F9FFF700FE00F0E6FCFFF7F6F8ED
:102BC000FEF7EEF8FDF728FDFDF700FC05E0FEF747
:102BD00083FAFDF733FD00F001F8F8E72DE9F05F27
:102BE000C548007800F0F6FF0646C44AC44B00F022
:102BF000E9FD824600F078FC04460022C14B00F05B
:102C0000FDFF804600F0A2FF3330BF490870BA488C
:102C1000007800F0DFFF0646B84AB94B00F0D2FD5D
:102C20000446FFF77BFD80460022B64B00F0E6FF2E
:102C3000824600F08BFF3330B4490870AE4800780C
:102C400000F0C8FF8046AD4AB14B00F0BBFD064620
:102C500000F0CAFC044600F079FF3330AD4908703B
:102C600008460078642803DD0020AB49087003E0C3
:102C7000A8480078A84908709F480078322805DCE9
:102C80009D4800784006000EA44908709A480078D4
:102C9000322806DD984800784000C0F1C8009F49FE
:102CA000087095480078322805DA93480078400685
:102CB000000E9B49087090480078322802D100200D
:102CC000974908708C480078322806DD8A480078D9
:102CD00032384006000E9249087087480078012873
:102CE00002DC00208F49087083480078012810DD3D
:102CF0008148007800F06EFF8046FFF7A9FD064688
:102D00000022894B00F07AFF044600F01FFF85493E
:102D1000087086480078012805D17B4801784FF07B
:102D20008040FEF7E8FF81484078012805D17648C9
:102D300001784FF08040FEF7E0FF7C488078012862
:102D400005D1714801784FF08040FEF7D8FF7748F1
:102D5000C078012805D16C4801784FF08040FEF71B
:102D6000D0FF73480078012805D1684801784FF0FA
:102D70008040FEF7C0FF6E484078012805D16348C7
:102D800001784FF08040FEF7B8FF6948807801284D
:102D900005D15E4801784FF08040FEF7B0FF6448EF
:102DA000C078012805D1594801784FF08040FEF7DE
:102DB000A8FF60480078012805D1574801784FF0F6
:102DC0008040FEF798FF5B484078012805D15248C3
:102DD00001784FF08040FEF790FF56488078012838
:102DE00005D14D4801784FF08040FEF788FF5148EB
:102DF000C078012805D1484801784FF08040FEF79F
:102E000080FF4D480078012805D1464801784FF0F1
:102E10008040FEF770FF48484078012805D14148BE
:102E200001784FF08040FEF768FF43488078012822
:102E300005D13C4801784FF08040FEF760FF3E48E6
:102E4000C078012805D1374801784FF08040FEF75F
:102E500058FF3A480078012805D1304801784FF0F2
:102E60008040FEF748FF35484078012805D12B48BF
:102E700001784FF08040FEF740FF3048807801280D
:102E800005D1264801784FF08040FEF738FF2B48E7
:102E9000C078012805D1214801784FF08040FEF725
:102EA00030FF27480078012805D11D4801784FF0F0
:102EB0008040FEF720FF22484078012805D11848BD
:102EC00001784FF08040FEF718FF1D4880780128F8
:102ED00005D1134801784FF08040FEF710FF1848E5
:102EE000C078012805D10E4801784FF08040FEF7E8
:102EF00008FFBDE8F09F00005D000020D7A3703DF3
:102F00000AD72F40000049405E0000205F000020EB
:102F10000AD73F40610000206000002063000020CD
:102F20006400002062000020000024403D000020DA
:102F30004100002045000020490000204D000020F5
:102F40005100002000B589B001210846FEF714FCAD
:102F500001210420FEF720FC18208DF82300072013
:102F6000ADF8200003208DF8220008A92148FDF7C4
:102F70008DFA4FF08040FEF77FFD0020ADF81A007B
:102F8000ADF816006320ADF8180040F2CF20ADF880
:102F9000140000208DF81C0005A94FF08040FEF7BA
:102FA000B3FE01A8FEF79AFE6020ADF804000020F1
:102FB000ADF80C000120ADF806000020ADF80A00C5
:102FC00001A94FF08040FEF75DFD01A94FF0804060
:102FD000FEF7A4FD01A94FF08040FEF7F1FD01A925
:102FE0004FF08040FEF73CFE01218807FEF70EFD02
:102FF00009B000BD000801406248007807282BD2C4
:10300000DFE800F00412161A1E22260000205E4996
:1030100008705E4908705E4908705E4908705E4934
:1030200008705E49087017E001205749087013E0E6
:103030000120564908700FE00120554908700BE047
:1030400001205449087007E001205349087003E04B
:1030500001205249087000BF00BF5148007807287E
:103060002BD2DFE800F00412161A1E2226000020E0
:103070004549487045494870454948704549487038
:10308000454948704549487017E001203E4948705D
:1030900013E001203D4948700FE001203C49487091
:1030A0000BE001203B49487007E001203A49487095
:1030B00003E001203949487000BF00BF394800785B
:1030C00007282BD2DFE800F00412161A1E22260071
:1030D00000202D4988702D4988702D4988702D4910
:1030E00088702D4988702D49887017E00120264985
:1030F000887013E00120254988700FE001202449E1
:1031000088700BE001202349887007E001202249E4
:10311000887003E001202149887000BF00BF224869
:10312000007807282BD2DFE800F00412161A1E22BE
:10313000260000201449C8701449C8701449C8708A
:103140001449C8701449C8701449C87017E00120A8
:103150000D49C87013E001200C49C8700FE0012030
:103160000B49C8700BE001200A49C87007E0012034
:103170000949C87003E001200849C87000BF00BFBA
:1031800070470000550000203D0000204100002055
:1031900045000020490000204D0000205100002083
:1031A00056000020570000205800002010B59D4810
:1031B000007805287ADA9CA201219A480078FDF768
:1031C00057FF9AA202210120FDF752FF9AA2022185
:1031D0000846FDF74DFF9BA202210320FDF748FFA3
:1031E0009BA202210420FDF743FF9C480078D8B938
:1031F00002239B4802780F211846FDF717FF022390
:10320000984802780F210320FDF710FF022396480B
:1032100002780F210420FDF709FF042393480D21B4
:1032200002680120FDF702FF8C480078012858D180
:103230007C480078401E30B1012817D0022828D0E1
:1032400003284DD139E08A480068B0F5967F07D948
:10325000042386480D2102680120FDF7E7FE04E003
:1032600084A20D210120FDF703FF39E080480068AA
:10327000B0F5967F07D90223794802780F211846C6
:10328000FDF7D4FE04E07DA20F210220FDF7F0FE41
:1032900026E077480068B0F5967F08D90223714888
:1032A00002780F210320FDF7C1FE05E019E073A2AB
:1032B0000F210320FDF7DCFE12E06D480068B0F539
:1032C000967F07D90223684802780F210420FDF772
:1032D000ADFE04E069A20F210420FDF7C9FE00BF86
:1032E00000BF5048007805284DD14FA2012104208D
:1032F000FDF7BEFE50A202210120FDF7B9FE51A24A
:1033000002210846FDF7B4FE51A202210320FDF779
:10331000AFFE5BA202210420FDF7AAFE4F48007811
:10332000D8B902234E4802780F210120FDF77EFE16
:1033300002234C4802780F211846FDF777FE02233E
:10334000494802780F210320FDF770FE02234F4801
:1033500002780F210420FDF769FE4048007801281B
:1033600011D143480068B0F5967F07D9022347483A
:1033700002780F210420FDF759FE04E03FA20F213F
:103380000420FDF775FE27480078062848D1334809
:10339000007868BB24A201210420FDF769FE3CA24D
:1033A00002210420FDF764FE26A202210120FDF780
:1033B0005FFE27A202210846FDF75AFE30A2022135
:1033C0000320FDF755FE0223264802780F21012035
:1033D000FDF72CFE0223244802780F211846FDF742
:1033E00025FE0223294802780F210320FDF71EFE47
:1033F0001A480078012813D128A201210846FDF7B8
:1034000037FE2BA201210420FDF732FE2DA201215F
:103410000320FDF72DFE2FA201210220FDF728FE3B
:1034200010BD0000060000203E0000005053435F26
:10343000436F6E6669670000434352315F436F6EAE
:1034400066696700434352325F436F6E6669670087
:10345000434352335F436F6E666967002800002064
:10346000090000200A0000200B0000202C00002092
:103470001C00002020202020000000002020000050
:10348000434352345F436F6E666967000C0000204F
:1034900041626F7574204D650000000020202020DF
:1034A00041424F5554204D4520202020000000006F
:1034B00044657369676E65723A4B7A313532637869
:1034C000000000004350553A73746D33326631305A
:1034D000780000004E616D653A3443485F50574DA7
:1034E0005F4F55540000000000B5254B21F000420D
:1034F00087B09A4203DC0022134600922BE0214B56
:103500009A4208D140B94FF00100FCF765FEFFF781
:10351000F6F807B000BD03DBFFF7EEF807B000BD1B
:1035200002AAFEF795FC10F003014FF001000DD048
:10353000012914D002291AD00DF1080C9CE80F00C3
:10354000FEF74AFE07B081F0004100BD0DF1080C06
:1035500000909CE80F00FEF713FF07B000BD0DF1CF
:10356000080C9CE80F00FEF737FE07B000BD0DF118
:10357000080C00909CE80F00FEF702FFE2E7000055
:10358000FB21E93F0000F07F10B50DA201210220D0
:10359000FDF76EFD0FA201210320FDF769FD002458
:1035A0000AE0032322460E210420FDF73FFD0820F8
:1035B000FCF758FE601CC4B2652CF2DB10BD0000A5
:1035C000202020202057656C636F6D65202020200F
:1035D000000000002020204C6F6164696E672E2E71
:1035E0002E2020200000000010B5164B21F00042D4
:1035F000012486B09A4203DC0022134600941CE0AA
:10360000114B9A4208D140B94FF00100FCF7E4FD9C
:10361000FFF775F806B010BD03DBFFF76DF806B0D5
:1036200010BD02AAFEF714FC00F00100A4EB40005C
:103630000DF1080C00909CE80F00FEF717FF06B094
:1036400010BD0000FB21E93F0000F07F10B591EABA
:10365000030F48BF83F0004300F1E283841A71EB4B
:10366000030C05D2121943EB0C03001B61EB0C0198
:10367000DFF824E14FEA1154A4EB135C1EEA430F78
:1036800018BF9EEA445F73D023EA0E03DCF1200EDC
:1036900021EA045143F4801332D322FA0CFE10EBDA
:1036A0000E0023FA0CFE41EB0E01CCF1200E03FAC2
:1036B0000EFE10EB0E0051F10001B1F5801FCCF1B0
:1036C000200E32D201EB045112FA0EF2BDE8104086
:1036D00058BF7047401C38BF5FEA420218BF7047AE
:1036E000002814BF20F0010041F100014FEA41031E
:1036F00013F5001F38BF7047A1F1C04100F076BB41
:10370000012A43EB0302ACF1200CDCF11F0E32BFA7
:103710004FF0000E23FA0CF310EB030041EB0451C1
:10372000B4EB115FD0D0A1EB045101F58011490831
:103730005FEA300001EB04510ED350F1000038BFB6
:1037400012FA0EFE08D1BDE81040C9E7401C38BF90
:103750005FEA4202CAD1C3E7BDE810404FEA410325
:1037600013F5001F38BF7047A1F1C04100F03EBB08
:103770009EEA445F08D011EA5E0FBDE8104004BF26
:1037800001F0004100207047BDE8104070B500F026
:10379000DFFA00BF64FBBE3E0000E0FF02494FF0CD
:1037A000000000F01FBC00BF0000F87F491058BFA8
:1037B000C1F140415B1058BFC3F140438B42EFF36E
:1037C000008070472DE9C04130B4DFF8A0C23CEA68
:1037D000111418BF3CEA131400F0EC8081EA0305D1
:1037E0001CEA111444EAD57418BF1CEA131500F042
:1037F000C780A4EB05044FF0004545EAC12145EA26
:10380000C32341EA505143EA525304F17F74994271
:1038100004F500344FEAC0204FEAC22208BF9042AC
:1038200000F09C804FEA13650FF24016765D4FEA78
:10383000134506FB05F7C7F1807706FB07F74FEA4C
:10384000D737A7FB03687642C8F58038A7FB06CEBA
:1038500038BFA8F1010807FB08E64FF0000EA6FBF1
:10386000028CE6FB03CEDCF1000CCEF1004E38BF3B
:10387000AEF1010EA6FB0C584FF000074FF000050B
:10388000E6FB0E87A1FB08C6A0FB07CE16EB0E06D3
:1038900045F10005E1FB076515F1E04E7EBFA4F59B
:1038A00080345FEA46066D4116F1800745F1000558
:1038B0004FEA17274FEA066647EA0567A6F1DE4694
:1038C000B6F1805F4FEA15251FD9384624F0010C68
:1038D00005EBC471BCF1FE6F01EB0C1102D8F0BC1A
:1038E000BDE8008124425CBF01F5801E9EEAC47FD2
:1038F00002D4F0BCBDE80081244238D4F0BCA1F170
:10390000C041BDE8004100F071BA4FEAD22242EA5C
:1039100043524FEAD323A7FB02864FEAD02040EA66
:10392000415007FB03661EEA0E0F4FEAD12105FB4B
:10393000026658BFA6EB0056B6EB00564FEA520E91
:103940004EEAC37E18EB0E0E56EB530EBDD518EBA8
:1039500002085E417F1C55F10005B6E74FF4801563
:103960004FF000074FF000064FF00008ADE7F0BC45
:103970004FF0000001F1C04101F00041BDE80081BD
:1039800011EA0C1F0CEA131500D00CE013EA0C1F0F
:1039900000F025804FF00000F0BC81EA030101F047
:1039A0000041BDE80081F0BCBDE8004181EA0301AF
:1039B00000F01CBAF0BCBDE8004170B500F0C8F9D9
:1039C000097EFC3E00F007B881EA03014FF00000D9
:1039D00001F00041704781EA030100F007BAF0BC32
:1039E000BDE800414FF0000021497047FFFDFBF9A1
:1039F000F7F5F4F2F0EEEDEBE9E8E6E4E3E1E0DE22
:103A0000DDDBDAD8D7D5D4D3D1D0CFCDCCCBCAC893
:103A1000C7C6C5C4C2C1C0BFBEBDBCBBBAB9B8B7BA
:103A2000B6B5B4B3B2B1B0AFAEADACABAAA9A8A8AD
:103A3000A7A6A5A4A3A3A2A1A09F9F9E9D9C9C9B7B
:103A40009A99999897979695959493939291919026
:103A50008F8F8E8E8D8C8C8B8B8A898988888787B7
:103A60008685858484838382828181800000FF072C
:103A70000000F87F51EA030C17D41CF5801F58BFD3
:103A8000BCF5801F00F10680994218BF704708BF3F
:103A90009042704707D711F5801F58BF13F5801F5C
:103AA00019D499427047894270471CF5801F08D588
:103AB000BCF5801FF7D58B4218BF704708BF824204
:103AC00070474FF4001C1CEB410F38BF1CEB430F39
:103AD00001D28B42704770B500F03AF99224490048
:103AE0004FF000514FF08053FFF760BE4FEA4103A3
:103AF0004FEA5353A3F58063D3F11E03C8BFD3F13C
:103B0000210C0CDD4FF0004242EAC12242EA505241
:103B100032FA03FC8CEAE17CACEBE1707047102BCD
:103B2000C4BF0020704703F5787CBCF1FF3F04D090
:103B30006FF0004282EA2100704770B500F008F98A
:103B40004992248000207047F2E700004FEA1153A9
:103B5000A3F58063D3F11E03A8BFD3F1200C08DBCB
:103B60004FF0004242EAC12252EA505232FA03F0C8
:103B7000704709420BD4102BC4BF0020704703F5D7
:103B8000787CBCF1FF3F05D04FF0FF3070474FF01D
:103B90000000704770B500F0DBF800BF4992248048
:103BA00000207047F0E710F0004248BF4042B0FAF2
:103BB00080F310FA03F10AD0C3F11D0303F580630B
:103BC0004FEA415002EB035202EBD12170474FF014
:103BD00000007047B0FA80F310FA03F10AD0C3F185
:103BE0001D0303F580634FEA41504FEA035202EB95
:103BF000D12170474FF0000070470000DFF848C146
:103C000070B51CEA111E1EBF1CEA13159EEA0C0FAC
:103C100095EA0C0F00F06F8081EA030423EA4C134D
:103C20004EEAD47E21EA4C1141F4801143F4801312
:103C3000AE44A1FB024CA0FB0365AEF17F7E3619BA
:103C400055EB0C05A1FB034C4CF10003A0FB021C3F
:103C500016EB0C06654153F10003094218BF46F00C
:103C6000010613F4007F0BD14FEA03314FEA053010
:103C7000340341EA155140EA16506FF003020AE09E
:103C80004FEAC3214FEAC520F40241EA555140EA08
:103C900056506FF0020202EB2E4201EB025585EA0C
:103CA000CE710AD05FEA440C18BF24F0004450F1F2
:103CB000000041F1000120EAD47040F2FE7C624530
:103CC00000D270BDA84214BF4FF080444FF0404472
:103CD000002E08BF0024BEF1806FA8BFA1F1C04133
:103CE000BDE8704080F282804FF0000001F1C041D9
:103CF00001F0004170479EEA0C0F0CEA131518BF43
:103D000095EA0C0F06D04FF0000081EA030E0EF08A
:103D1000004170BD00F01CF88900013E00F007B8BA
:103D200000F009B84FEA430C5FEA5C5C08D081EA16
:103D3000030100F05BB84FEA410C5FEA5C5CF6D12E
:103D40004FF00000014970470000FF070000F87FB6
:103D50000EF1020E2EF0030E5EF8046B364205D40F
:103D6000012A43EB030515F5001F12D8012841EB8A
:103D7000010C1CF5001F0CD80ED14FEAD17C15F5B3
:103D8000001F0CEB4C0C0CF1020C08BF4CEBD37C6D
:103D900004E04FF0080C01E04FEAD37C0CEB4C053B
:103DA00026FA05F606F00706B6F1040C06D20EEB6D
:103DB000860CBDE870404CF0010C6047DFE80CF069
:103DC000090B02024FF000414FF00000A1F5002165
:103DD00070BD19461046012851EB010418BFD4F5F7
:103DE000001484BF002001F0004170BD0808A0F558
:103DF00000114FEA3101704791EA030F10B581F0CD
:103E000000413FF52BAC83F0004300F009B80000FF
:103E100010B591EA030F48BF83F000433FF51EAC95
:103E2000841A71EB030C07D212198CF0004C43EB8F
:103E30000C03001B61EB0C01DFF8A4E14FEA115405
:103E4000A4EB135C1EEA430F18BF9EEA445F00F028
:103E5000B08023EA6E03524221EA0451C3EB6E03A1
:103E600038BF5B1EDCF1200E25D322FA0CFE10EBCE
:103E70000E0043FA0CFE41EB0E01CCF1200E03FACA
:103E80000EFE10EB0E0051F10001CCF1200E29D4F2
:103E900012FA0EF201EB0451BDE8104058BF704712
:103EA000401C1CBFB2F1004F704700280CBF491CDA
:103EB00020F00100704712EB020E43EB030218BF23
:103EC0004FF0010E4EEA4202ACF1200CDCF11E0E66
:103ED00054D943FA0CFE10EB0E0051F1FF31CCF136
:103EE0001E0ED5D50EF1010E12FA0EFE404141EB29
:103EF000010101EB445C5FEA5C5C10D910EBDE7001
:103F000001EB045138BFBEF1004FBDE8104018BFAF
:103F1000704700280CBF491C20F00100704730D2C8
:103F20004FEAD42C11F5001124F400641BD0B1FA2F
:103F300081F20B3AA41AA41ED2F12003914030FA68
:103F400003F31943904001EBCC71002C01EB0451B9
:103F5000BDE81040A8BF704701F1C0414FF000001C
:103F600001F000417047B0FA80F310FA03F100D17C
:103F700010BDE41A173C4805C90AE4E701EB0451F7
:103F800010BD491001EB0451BDE810404FEA30006C
:103F900002E04FF0000170474A0008BF0042F8D02D
:103FA000B2F5001F28BF704701F000414FF000003C
:103FB00070479EEA445F07D011EA5E0FBDE81040EB
:103FC00004BF002100207047BDE8104070B5FFF726
:103FD000BFFE00BF40DFF63E83F000411046704751
:103FE0000000E0FF0CF00F03092B08BF082000F0D1
:103FF00059800A2B0BD0082B18BF704708BF1CF044
:10400000400F0AD04FF000004FF0000170471CF045
:10401000400F18BF4FF0004070471CF0100F08D041
:1040200020F0704300F07F4242EAD3014FEA437030
:10403000704700F0604021F07F4242EA000201F048
:104040007F4040EA727070474FF0FF0C4CF4E06C18
:104050001CEA11531CBF9CEA030C9445C2BFDA4210
:1040600001EB02517047002B0DD0BCF1000F0FD0B7
:10407000002A01F00041A4BF41F0E04141F07F611E
:104080004FF00000704701F000414FF00000704712
:1040900050EA01334FF09B0C18BF4CF0806C7FF45A
:1040A0007DAB70471CF4801F11D01CF4E02F03D0AF
:1040B0006FEACC31490070474FF04050EFF3008277
:1040C00022F0704242EA000282F3008870474FF00B
:1040D0000000704700000000000000000000000029
:1040E00000000000000000F80000000000000033A5
:1040F0003000000000100C06100C0600000000004C
:104100000000000040C07840C0784000043F040434
:104110003F040400007088FC08300000001820FFF5
:10412000211E0000F008F000E018000000211C0330
:104130001E211E0000F00888700000001E212324AC
:104140001927211010160E000000000000000000CA
:1041500000000000000000E018040200000000075A
:104160001820400000020418E00000000040201861
:1041700007000000404080F0804040000202010F34
:1041800001020200000000F0000000000101011F18
:1041900001010100000000000000000080B070007C
:1041A000000000000000000000000000000101010C
:1041B000010101010000000000000000003030009B
:1041C0000000000000000000806018040060180675
:1041D0000100000000E010080810E000000F1020AF
:1041E00020100F00001010F8000000000020203FF9
:1041F0002020000000700808088870000030282483
:104200002221300000300888884830000018202023
:1042100020110E000000C02010F800000007042448
:10422000243F240000F8088888080800001921208D
:1042300020110E0000E0108888180000000F1120E7
:1042400020110E0000380808C83808000000003FA0
:10425000000000000070880808887000001C2221FF
:1042600021221C0000E010080810E00000003122AC
:1042700022110F00000000C0C0000000000000304C
:10428000300000000000008000000000000080609E
:10429000000000000000804020100800000102041F
:1042A0000810200040404040404040000404040406
:1042B00004040400000810204080000000201008C2
:1042C00004020100007048080808F00000000030F7
:1042D00036010000C030C828E810E0000718272485
:1042E00023140B000000C038E0000000203C230233
:1042F0000227382008F8888888700000203F202096
:1043000020110E00C03008080808380007182020C7
:104310002010080008F808080810E000203F2020BE
:1043200020100F0008F88888E8081000203F20209F
:104330002320180008F88888E8081000203F200093
:1043400003000000C03008080838000007182020CB
:10435000221E020008F808000008F808203F21018A
:1043600001213F20000808F8080800000020203F35
:104370002020000000000808F8080800C0808080A5
:104380007F00000008F888C028180800203F20019E
:104390002638200008F8080000000000203F2020F8
:1043A0002020300008F8F800F8F80800203F003F0F
:1043B000003F200008F830C00008F808203F200027
:1043C00007183F00E01008080810E0000F10202038
:1043D00020100F0008F808080808F000203F21010D
:1043E00001010000E01008080810E0000F18242464
:1043F00038504F0008F8888888887000203F2000D7
:10440000030C30200070880808083800003820218C
:1044100021221C00180808F8080818000000203F96
:104420002000000008F808000008F808001F2020FD
:1044300020201F000878880000C8380800000738CE
:104440000E010000F80800F80008F800033C07001F
:10445000073C0300081868808068180820302C0387
:10446000032C30200838C800C83808000000203F5E
:104470002000000010080808C8380800203826214D
:1044800020201800000000FE020202000000007F51
:1044900040404000000C30C000000000000000015F
:1044A0000638C00000020202FE000000004040404A
:1044B0007F0000000000040202020400000000006F
:1044C00000000000000000000000000080808080EC
:1044D00080808080000202040000000000000000D4
:1044E000000000000000808080800000001924226D
:1044F00022223F2008F8008080000000003F1120A9
:1045000020110E000000008080800000000E1120AD
:1045100020201100000000808088F800000E11208B
:1045200020103F200000808080800000001F222299
:1045300022221300008080F0888888180020203F05
:10454000202000000000808080808000006B949418
:104550009493600008F8008080800000203F2100D4
:1045600000203F2000809898000000000020203F9D
:1045700020200000000000809898000000C080808B
:10458000807F000008F8000080808000203F240227
:104590002D302000000808F8000000000020203F17
:1045A000202000008080808080808000203F2000CC
:1045B0003F20003F8080008080800000203F21005D
:1045C00000203F200000808080800000001F20200D
:1045D00020201F00808000808000000080FFA1203C
:1045E00020110E000000008080808000000E11204D
:1045F00020A0FF80808080008080800020203F21DC
:10460000200001000000808080808000003324248E
:1046100024241900008080E0808000000000001F3A
:10462000202000008080000000808000001F2020EB
:1046300020103F20808080000080808000010E30AC
:104640000806010080800080008080800F300C030D
:104650000C300F0000808000808080000020312E10
:104660000E312000808080000080808080818E70EC
:104670001806010000808080808080000021302C9E
:104680002221300000000000807C020200000000B7
:10469000003F404000000000FF000000000000005C
:1046A000FF0000000002027C800000000040403F4C
:1046B00000000000000601010202040400000000E6
:1046C000000000000000000004FA97999999D93F72
:1046D000AF788E1DC571CC3F9FC678D0099AC33F75
:1046E000935555555555E53F599322942449D23F4A
:1046F000DE03CB966446C73F44523EDF12F1C23F11
:104700004C5555555555A53F7751C1166CC156BFEF
:104710009015CB19A001FA3EAD529C804F7E92BEFF
:10472000C4B1B4BD9EEE213ED43888BEE9FAA8BD1E
:10473000000000000000000000004054FB21F93F91
:104740003163621A61B4D03D0000601A61B4D03D9B
:104750007370032E8A19A33B0000002E8A19A33B15
:10476000C14920259A837B39000000000000000029
:104770006E83F9A22915444ED15727FCC0DD34F5CC
:10478000999562DB4190433CAB6351FE61C5BBDE52
:104790003A6E24B7E0D24D42EA2E49061C92D10966
:1047A0001CEB1DFE3EA729B1F53582E88444BB2EE3
:1047B00026709CE9417E5FB439D69139F439538330
:1047C0008B5F849C3B28F9BDFF97F81F0F9805DE8F
:1047D0008B112FEF1F6D0A5ACF7E366DB709CB278D
:1047E000663F464F2DEA5F9EC7BA27757BF1E5EB22
:1047F000F739073DEA92528AB15FFB6B085D8D1F66
:10480000A6F810111111813FD561C119A0012ABF6D
:104810007DFEB157E31DC73EEB9C2B8AE6E55ABEF1
:104820007CD5CF5A3AD9E53D7AFE10111111C13F1E
:1048300037D60684F464963F280356C9226D6D3F2F
:104840000165F2F2D844433FA69237A0887E143F18
:10485000735360DBCB75F3BEFE41B31BBAA1AB3F14
:1048600093846EE9E326823F1583E0FEC8DB573F61
:1048700068108D1AF726303FE9A7F0320FB8123FC3
:10488000D47ABF74702AFB3EA848000800000020BC
:104890006800000028010008104900086800002096
:1048A0006006000044010008000000000000020053
:1048B00000000000000000000000000000000000F8
:1048C00000000000000000000000000000000000E8
:1048D00000000000000000000000000000000000D8
:1048E00000000000010000000000000000000000C7
:1048F00000000000000000000000000000000000B8
:1049000000000000000000000000000000000000A7
:04000005080000ED02
:00000001FF
